{
  "abi": [
    {
      "inputs": [
        {
          "internalType": "uint32",
          "name": "_localDomain",
          "type": "uint32"
        },
        {
          "internalType": "address",
          "name": "_attester",
          "type": "address"
        },
        {
          "internalType": "uint32",
          "name": "_maxMessageBodySize",
          "type": "uint32"
        },
        {
          "internalType": "uint32",
          "name": "_version",
          "type": "uint32"
        }
      ],
      "stateMutability": "nonpayable",
      "type": "constructor"
    },
    {
      "anonymous": false,
      "inputs": [
        {
          "indexed": true,
          "internalType": "address",
          "name": "attester",
          "type": "address"
        }
      ],
      "name": "AttesterDisabled",
      "type": "event"
    },
    {
      "anonymous": false,
      "inputs": [
        {
          "indexed": true,
          "internalType": "address",
          "name": "attester",
          "type": "address"
        }
      ],
      "name": "AttesterEnabled",
      "type": "event"
    },
    {
      "anonymous": false,
      "inputs": [
        {
          "indexed": true,
          "internalType": "address",
          "name": "previousAttesterManager",
          "type": "address"
        },
        {
          "indexed": true,
          "internalType": "address",
          "name": "newAttesterManager",
          "type": "address"
        }
      ],
      "name": "AttesterManagerUpdated",
      "type": "event"
    },
    {
      "anonymous": false,
      "inputs": [
        {
          "indexed": false,
          "internalType": "uint256",
          "name": "newMaxMessageBodySize",
          "type": "uint256"
        }
      ],
      "name": "MaxMessageBodySizeUpdated",
      "type": "event"
    },
    {
      "anonymous": false,
      "inputs": [
        {
          "indexed": true,
          "internalType": "address",
          "name": "caller",
          "type": "address"
        },
        {
          "indexed": false,
          "internalType": "uint32",
          "name": "sourceDomain",
          "type": "uint32"
        },
        {
          "indexed": true,
          "internalType": "uint64",
          "name": "nonce",
          "type": "uint64"
        },
        {
          "indexed": false,
          "internalType": "bytes32",
          "name": "sender",
          "type": "bytes32"
        },
        {
          "indexed": false,
          "internalType": "bytes",
          "name": "messageBody",
          "type": "bytes"
        }
      ],
      "name": "MessageReceived",
      "type": "event"
    },
    {
      "anonymous": false,
      "inputs": [
        {
          "indexed": false,
          "internalType": "bytes",
          "name": "message",
          "type": "bytes"
        }
      ],
      "name": "MessageSent",
      "type": "event"
    },
    {
      "anonymous": false,
      "inputs": [
        {
          "indexed": true,
          "internalType": "address",
          "name": "previousOwner",
          "type": "address"
        },
        {
          "indexed": true,
          "internalType": "address",
          "name": "newOwner",
          "type": "address"
        }
      ],
      "name": "OwnershipTransferStarted",
      "type": "event"
    },
    {
      "anonymous": false,
      "inputs": [
        {
          "indexed": true,
          "internalType": "address",
          "name": "previousOwner",
          "type": "address"
        },
        {
          "indexed": true,
          "internalType": "address",
          "name": "newOwner",
          "type": "address"
        }
      ],
      "name": "OwnershipTransferred",
      "type": "event"
    },
    {
      "anonymous": false,
      "inputs": [],
      "name": "Pause",
      "type": "event"
    },
    {
      "anonymous": false,
      "inputs": [
        {
          "indexed": true,
          "internalType": "address",
          "name": "newAddress",
          "type": "address"
        }
      ],
      "name": "PauserChanged",
      "type": "event"
    },
    {
      "anonymous": false,
      "inputs": [
        {
          "indexed": true,
          "internalType": "address",
          "name": "newRescuer",
          "type": "address"
        }
      ],
      "name": "RescuerChanged",
      "type": "event"
    },
    {
      "anonymous": false,
      "inputs": [
        {
          "indexed": false,
          "internalType": "uint256",
          "name": "oldSignatureThreshold",
          "type": "uint256"
        },
        {
          "indexed": false,
          "internalType": "uint256",
          "name": "newSignatureThreshold",
          "type": "uint256"
        }
      ],
      "name": "SignatureThresholdUpdated",
      "type": "event"
    },
    {
      "anonymous": false,
      "inputs": [],
      "name": "Unpause",
      "type": "event"
    },
    {
      "inputs": [],
      "name": "acceptOwnership",
      "outputs": [],
      "stateMutability": "nonpayable",
      "type": "function"
    },
    {
      "inputs": [],
      "name": "attesterManager",
      "outputs": [
        {
          "internalType": "address",
          "name": "",
          "type": "address"
        }
      ],
      "stateMutability": "view",
      "type": "function"
    },
    {
      "inputs": [
        {
          "internalType": "address",
          "name": "attester",
          "type": "address"
        }
      ],
      "name": "disableAttester",
      "outputs": [],
      "stateMutability": "nonpayable",
      "type": "function"
    },
    {
      "inputs": [
        {
          "internalType": "address",
          "name": "newAttester",
          "type": "address"
        }
      ],
      "name": "enableAttester",
      "outputs": [],
      "stateMutability": "nonpayable",
      "type": "function"
    },
    {
      "inputs": [
        {
          "internalType": "uint256",
          "name": "index",
          "type": "uint256"
        }
      ],
      "name": "getEnabledAttester",
      "outputs": [
        {
          "internalType": "address",
          "name": "",
          "type": "address"
        }
      ],
      "stateMutability": "view",
      "type": "function"
    },
    {
      "inputs": [],
      "name": "getNumEnabledAttesters",
      "outputs": [
        {
          "internalType": "uint256",
          "name": "",
          "type": "uint256"
        }
      ],
      "stateMutability": "view",
      "type": "function"
    },
    {
      "inputs": [
        {
          "internalType": "address",
          "name": "attester",
          "type": "address"
        }
      ],
      "name": "isEnabledAttester",
      "outputs": [
        {
          "internalType": "bool",
          "name": "",
          "type": "bool"
        }
      ],
      "stateMutability": "view",
      "type": "function"
    },
    {
      "inputs": [],
      "name": "localDomain",
      "outputs": [
        {
          "internalType": "uint32",
          "name": "",
          "type": "uint32"
        }
      ],
      "stateMutability": "view",
      "type": "function"
    },
    {
      "inputs": [],
      "name": "maxMessageBodySize",
      "outputs": [
        {
          "internalType": "uint256",
          "name": "",
          "type": "uint256"
        }
      ],
      "stateMutability": "view",
      "type": "function"
    },
    {
      "inputs": [],
      "name": "nextAvailableNonce",
      "outputs": [
        {
          "internalType": "uint64",
          "name": "",
          "type": "uint64"
        }
      ],
      "stateMutability": "view",
      "type": "function"
    },
    {
      "inputs": [],
      "name": "owner",
      "outputs": [
        {
          "internalType": "address",
          "name": "",
          "type": "address"
        }
      ],
      "stateMutability": "view",
      "type": "function"
    },
    {
      "inputs": [],
      "name": "pause",
      "outputs": [],
      "stateMutability": "nonpayable",
      "type": "function"
    },
    {
      "inputs": [],
      "name": "paused",
      "outputs": [
        {
          "internalType": "bool",
          "name": "",
          "type": "bool"
        }
      ],
      "stateMutability": "view",
      "type": "function"
    },
    {
      "inputs": [],
      "name": "pauser",
      "outputs": [
        {
          "internalType": "address",
          "name": "",
          "type": "address"
        }
      ],
      "stateMutability": "view",
      "type": "function"
    },
    {
      "inputs": [],
      "name": "pendingOwner",
      "outputs": [
        {
          "internalType": "address",
          "name": "",
          "type": "address"
        }
      ],
      "stateMutability": "view",
      "type": "function"
    },
    {
      "inputs": [
        {
          "internalType": "bytes",
          "name": "message",
          "type": "bytes"
        },
        {
          "internalType": "bytes",
          "name": "attestation",
          "type": "bytes"
        }
      ],
      "name": "receiveMessage",
      "outputs": [
        {
          "internalType": "bool",
          "name": "success",
          "type": "bool"
        }
      ],
      "stateMutability": "nonpayable",
      "type": "function"
    },
    {
      "inputs": [
        {
          "internalType": "bytes",
          "name": "originalMessage",
          "type": "bytes"
        },
        {
          "internalType": "bytes",
          "name": "originalAttestation",
          "type": "bytes"
        },
        {
          "internalType": "bytes",
          "name": "newMessageBody",
          "type": "bytes"
        },
        {
          "internalType": "bytes32",
          "name": "newDestinationCaller",
          "type": "bytes32"
        }
      ],
      "name": "replaceMessage",
      "outputs": [],
      "stateMutability": "nonpayable",
      "type": "function"
    },
    {
      "inputs": [
        {
          "internalType": "contract IERC20",
          "name": "tokenContract",
          "type": "address"
        },
        {
          "internalType": "address",
          "name": "to",
          "type": "address"
        },
        {
          "internalType": "uint256",
          "name": "amount",
          "type": "uint256"
        }
      ],
      "name": "rescueERC20",
      "outputs": [],
      "stateMutability": "nonpayable",
      "type": "function"
    },
    {
      "inputs": [],
      "name": "rescuer",
      "outputs": [
        {
          "internalType": "address",
          "name": "",
          "type": "address"
        }
      ],
      "stateMutability": "view",
      "type": "function"
    },
    {
      "inputs": [
        {
          "internalType": "uint32",
          "name": "destinationDomain",
          "type": "uint32"
        },
        {
          "internalType": "bytes32",
          "name": "recipient",
          "type": "bytes32"
        },
        {
          "internalType": "bytes",
          "name": "messageBody",
          "type": "bytes"
        }
      ],
      "name": "sendMessage",
      "outputs": [
        {
          "internalType": "uint64",
          "name": "",
          "type": "uint64"
        }
      ],
      "stateMutability": "nonpayable",
      "type": "function"
    },
    {
      "inputs": [
        {
          "internalType": "uint32",
          "name": "destinationDomain",
          "type": "uint32"
        },
        {
          "internalType": "bytes32",
          "name": "recipient",
          "type": "bytes32"
        },
        {
          "internalType": "bytes32",
          "name": "destinationCaller",
          "type": "bytes32"
        },
        {
          "internalType": "bytes",
          "name": "messageBody",
          "type": "bytes"
        }
      ],
      "name": "sendMessageWithCaller",
      "outputs": [
        {
          "internalType": "uint64",
          "name": "",
          "type": "uint64"
        }
      ],
      "stateMutability": "nonpayable",
      "type": "function"
    },
    {
      "inputs": [
        {
          "internalType": "uint256",
          "name": "newMaxMessageBodySize",
          "type": "uint256"
        }
      ],
      "name": "setMaxMessageBodySize",
      "outputs": [],
      "stateMutability": "nonpayable",
      "type": "function"
    },
    {
      "inputs": [
        {
          "internalType": "uint256",
          "name": "newSignatureThreshold",
          "type": "uint256"
        }
      ],
      "name": "setSignatureThreshold",
      "outputs": [],
      "stateMutability": "nonpayable",
      "type": "function"
    },
    {
      "inputs": [],
      "name": "signatureThreshold",
      "outputs": [
        {
          "internalType": "uint256",
          "name": "",
          "type": "uint256"
        }
      ],
      "stateMutability": "view",
      "type": "function"
    },
    {
      "inputs": [
        {
          "internalType": "address",
          "name": "newOwner",
          "type": "address"
        }
      ],
      "name": "transferOwnership",
      "outputs": [],
      "stateMutability": "nonpayable",
      "type": "function"
    },
    {
      "inputs": [],
      "name": "unpause",
      "outputs": [],
      "stateMutability": "nonpayable",
      "type": "function"
    },
    {
      "inputs": [
        {
          "internalType": "address",
          "name": "newAttesterManager",
          "type": "address"
        }
      ],
      "name": "updateAttesterManager",
      "outputs": [],
      "stateMutability": "nonpayable",
      "type": "function"
    },
    {
      "inputs": [
        {
          "internalType": "address",
          "name": "_newPauser",
          "type": "address"
        }
      ],
      "name": "updatePauser",
      "outputs": [],
      "stateMutability": "nonpayable",
      "type": "function"
    },
    {
      "inputs": [
        {
          "internalType": "address",
          "name": "newRescuer",
          "type": "address"
        }
      ],
      "name": "updateRescuer",
      "outputs": [],
      "stateMutability": "nonpayable",
      "type": "function"
    },
    {
      "inputs": [
        {
          "internalType": "bytes32",
          "name": "",
          "type": "bytes32"
        }
      ],
      "name": "usedNonces",
      "outputs": [
        {
          "internalType": "uint256",
          "name": "",
          "type": "uint256"
        }
      ],
      "stateMutability": "view",
      "type": "function"
    },
    {
      "inputs": [],
      "name": "version",
      "outputs": [
        {
          "internalType": "uint32",
          "name": "",
          "type": "uint32"
        }
      ],
      "stateMutability": "view",
      "type": "function"
    }
  ],
  "bytecode": {
    "object": "0x60c06040526002805460ff60a01b191690553480156200001e57600080fd5b506040516200481f3803806200481f833981810160405260808110156200004457600080fd5b508051602082015160408301516060909301519192909182620000706200006a620000bb565b620000bf565b6200007b33620000e9565b60016004556200008b816200010b565b506001600160e01b031960e094851b811660805263ffffffff9290921660085590921b90911660a0525062000342565b3390565b600180546001600160a01b0319169055620000e6816200026b602090811b620024b817901c565b50565b600780546001600160a01b0319166001600160a01b0392909216919091179055565b6007546001600160a01b031633146200016b576040805162461bcd60e51b815260206004820152601b60248201527f43616c6c6572206e6f74206174746573746572206d616e616765720000000000604482015290519081900360640190fd5b6001600160a01b038116620001c7576040805162461bcd60e51b815260206004820152601c60248201527f4e6577206174746573746572206d757374206265206e6f6e7a65726f00000000604482015290519081900360640190fd5b620001e2816005620002bb60201b6200252d1790919060201c565b62000234576040805162461bcd60e51b815260206004820152601860248201527f417474657374657220616c726561647920656e61626c65640000000000000000604482015290519081900360640190fd5b6040516001600160a01b038216907f5b99bab45c72ce67e89466dbc47480b9c1fde1400e7268bbf463b8354ee4653f90600090a250565b600080546001600160a01b038381166001600160a01b0319831681178455604051919092169283917f8be0079c531659141344cd1fd0a4f28419497f9722a3daafe3b4186f6b6457e09190a35050565b6000620002d2836001600160a01b038416620002db565b90505b92915050565b6000620002e983836200032a565b6200032157508154600181810184556000848152602080822090930184905584548482528286019093526040902091909155620002d5565b506000620002d5565b60009081526001919091016020526040902054151590565b60805160e01c60a05160e01c61449a6200038560003980610d325280611173528061267e525080610f5052806118805280611c2c528061269f525061449a6000f3fe608060405234801561001057600080fd5b50600436106101e55760003560e01c80638da5cb5b1161010f578063bbde5374116100a2578063f2fde38b11610071578063f2fde38b146106da578063f7259a751461070d578063fae3687914610796578063feb61724146107c9576101e5565b8063bbde537414610665578063beb673d814610682578063de7769d41461069f578063e30c3978146106d2576101e5565b8063a82f2e26116100de578063a82f2e26146104fe578063af47b9bb14610506578063b2118a8d1461050e578063b857b77414610551576101e5565b80638da5cb5b146104c957806392492c68146104d15780639b0d94b7146104ee5780639fd0506d146104f6576101e5565b8063554bab3c116101875780637af82f60116101565780637af82f601461047e5780638371744e146104b15780638456cb59146104b95780638d3638f4146104c1576101e5565b8063554bab3c1461036557806357ecfd28146103985780635c975abb1461046e57806379ba509714610476576101e5565b806338a63183116101c357806338a63183146102f15780633f4ba83a1461032257806351079a531461032a57806354fd4d5014610344576101e5565b80630ba469bc146101ea5780632ab60045146102895780632d025080146102be575b600080fd5b61026c6004803603606081101561020057600080fd5b63ffffffff8235169160208101359181019060608101604082013564010000000081111561022d57600080fd5b82018360208201111561023f57600080fd5b8035906020019184600183028401116401000000008311171561026157600080fd5b5090925090506107e6565b6040805167ffffffffffffffff9092168252519081900360200190f35b6102bc6004803603602081101561029f57600080fd5b503573ffffffffffffffffffffffffffffffffffffffff16610931565b005b6102bc600480360360208110156102d457600080fd5b503573ffffffffffffffffffffffffffffffffffffffff16610a14565b6102f9610c40565b6040805173ffffffffffffffffffffffffffffffffffffffff9092168252519081900360200190f35b6102bc610c5c565b610332610d1f565b60408051918252519081900360200190f35b61034c610d30565b6040805163ffffffff9092168252519081900360200190f35b6102bc6004803603602081101561037b57600080fd5b503573ffffffffffffffffffffffffffffffffffffffff16610d54565b61045a600480360360408110156103ae57600080fd5b8101906020810181356401000000008111156103c957600080fd5b8201836020820111156103db57600080fd5b803590602001918460018302840111640100000000831117156103fd57600080fd5b91939092909160208101903564010000000081111561041b57600080fd5b82018360208201111561042d57600080fd5b8035906020019184600183028401116401000000008311171561044f57600080fd5b509092509050610e3d565b604080519115158252519081900360200190f35b61045a6116bb565b6102bc6116dc565b61045a6004803603602081101561049457600080fd5b503573ffffffffffffffffffffffffffffffffffffffff1661177f565b61026c611794565b6102bc6117a4565b61034c61187e565b6102f96118a2565b6102bc600480360360208110156104e757600080fd5b50356118be565b6102f9611901565b6102f961191d565b610332611939565b61033261193f565b6102bc6004803603606081101561052457600080fd5b5073ffffffffffffffffffffffffffffffffffffffff813581169160208101359091169060400135611945565b6102bc6004803603608081101561056757600080fd5b81019060208101813564010000000081111561058257600080fd5b82018360208201111561059457600080fd5b803590602001918460018302840111640100000000831117156105b657600080fd5b9193909290916020810190356401000000008111156105d457600080fd5b8201836020820111156105e657600080fd5b8035906020019184600183028401116401000000008311171561060857600080fd5b91939092909160208101903564010000000081111561062657600080fd5b82018360208201111561063857600080fd5b8035906020019184600183028401116401000000008311171561065a57600080fd5b9193509150356119db565b6102bc6004803603602081101561067b57600080fd5b5035611d59565b6102f96004803603602081101561069857600080fd5b5035611f7b565b6102bc600480360360208110156106b557600080fd5b503573ffffffffffffffffffffffffffffffffffffffff16611f88565b6102f9612092565b6102bc600480360360208110156106f057600080fd5b503573ffffffffffffffffffffffffffffffffffffffff166120ae565b61026c6004803603608081101561072357600080fd5b63ffffffff823516916020810135916040820135919081019060808101606082013564010000000081111561075757600080fd5b82018360208201111561076957600080fd5b8035906020019184600183028401116401000000008311171561078b57600080fd5b509092509050612146565b6102bc600480360360208110156107ac57600080fd5b503573ffffffffffffffffffffffffffffffffffffffff166122e4565b610332600480360360208110156107df57600080fd5b50356124a6565b60025460009074010000000000000000000000000000000000000000900460ff161561087357604080517f08c379a000000000000000000000000000000000000000000000000000000000815260206004820152601060248201527f5061757361626c653a2070617573656400000000000000000000000000000000604482015290519081900360640190fd5b60008061087e612558565b9050600073__$8c977731748aa4504deed57239565df533$__6382c947b7336040518263ffffffff1660e01b8152600401808273ffffffffffffffffffffffffffffffffffffffff16815260200191505060206040518083038186803b1580156108e757600080fd5b505af41580156108fb573d6000803e3d6000fd5b505050506040513d602081101561091157600080fd5b5051905061092488888584868b8b61259a565b509150505b949350505050565b6109396127a4565b73ffffffffffffffffffffffffffffffffffffffff81166109a5576040517f08c379a000000000000000000000000000000000000000000000000000000000815260040180806020018281038252602a815260200180614231602a913960400191505060405180910390fd5b600380547fffffffffffffffffffffffff00000000000000000000000000000000000000001673ffffffffffffffffffffffffffffffffffffffff83169081179091556040517fe475e580d85111348e40d8ca33cfdd74c30fe1655c2d8537a13abc10065ffa5a90600090a250565b60075473ffffffffffffffffffffffffffffffffffffffff163314610a9a57604080517f08c379a000000000000000000000000000000000000000000000000000000000815260206004820152601b60248201527f43616c6c6572206e6f74206174746573746572206d616e616765720000000000604482015290519081900360640190fd5b6000610aa4610d1f565b905060018111610b1557604080517f08c379a000000000000000000000000000000000000000000000000000000000815260206004820152601960248201527f546f6f2066657720656e61626c65642061747465737465727300000000000000604482015290519081900360640190fd5b6004548111610b8557604080517f08c379a000000000000000000000000000000000000000000000000000000000815260206004820152601e60248201527f5369676e6174757265207468726573686f6c6420697320746f6f206c6f770000604482015290519081900360640190fd5b610b9060058361284e565b610bfb57604080517f08c379a000000000000000000000000000000000000000000000000000000000815260206004820152601960248201527f417474657374657220616c72656164792064697361626c656400000000000000604482015290519081900360640190fd5b60405173ffffffffffffffffffffffffffffffffffffffff8316907f78e573a18c75957b7cadaab01511aa1c19a659f06ecf53e01de37ed92d3261fc90600090a25050565b60035473ffffffffffffffffffffffffffffffffffffffff1690565b60025473ffffffffffffffffffffffffffffffffffffffff163314610ccc576040517f08c379a00000000000000000000000000000000000000000000000000000000081526004018080602001828103825260228152602001806143916022913960400191505060405180910390fd5b600280547fffffffffffffffffffffff00ffffffffffffffffffffffffffffffffffffffff1690556040517f7805862f689e2f13df9f062ff482ad3ad112aca9e0847911ed832e158c525b3390600090a1565b6000610d2b6005612870565b905090565b7f000000000000000000000000000000000000000000000000000000000000000081565b610d5c6127a4565b73ffffffffffffffffffffffffffffffffffffffff8116610dc8576040517f08c379a00000000000000000000000000000000000000000000000000000000081526004018080602001828103825260288152602001806141be6028913960400191505060405180910390fd5b600280547fffffffffffffffffffffffff00000000000000000000000000000000000000001673ffffffffffffffffffffffffffffffffffffffff83811691909117918290556040519116907fb80482a293ca2e013eda8683c9bd7fc8347cfdaeea5ede58cba46df502c2a60490600090a250565b60025460009074010000000000000000000000000000000000000000900460ff1615610eca57604080517f08c379a000000000000000000000000000000000000000000000000000000000815260206004820152601060248201527f5061757361626c653a2070617573656400000000000000000000000000000000604482015290519081900360640190fd5b610ed68585858561287b565b6000610f1c600087878080601f0160208091040260200160405190810160405280939291908181526020018383808284376000920191909152509293925050612a989050565b9050610f497fffffffffffffffffffffffffffffffffffffffffffffffffffffffffff0000008216612abc565b63ffffffff7f000000000000000000000000000000000000000000000000000000000000000016610f9b7fffffffffffffffffffffffffffffffffffffffffffffffffffffffffff0000008316612bfa565b63ffffffff161461100d57604080517f08c379a000000000000000000000000000000000000000000000000000000000815260206004820152601a60248201527f496e76616c69642064657374696e6174696f6e20646f6d61696e000000000000604482015290519081900360640190fd5b600061103a7fffffffffffffffffffffffffffffffffffffffffffffffffffffffffff0000008316612c2b565b1461116c57604080517f82c947b7000000000000000000000000000000000000000000000000000000008152336004820152905173__$8c977731748aa4504deed57239565df533$__916382c947b7916024808301926020929190829003018186803b1580156110a957600080fd5b505af41580156110bd573d6000803e3d6000fd5b505050506040513d60208110156110d357600080fd5b50516111007fffffffffffffffffffffffffffffffffffffffffffffffffffffffffff0000008316612c2b565b1461116c57604080517f08c379a000000000000000000000000000000000000000000000000000000000815260206004820152601a60248201527f496e76616c69642063616c6c657220666f72206d657373616765000000000000604482015290519081900360640190fd5b63ffffffff7f0000000000000000000000000000000000000000000000000000000000000000166111be7fffffffffffffffffffffffffffffffffffffffffffffffffffffffffff0000008316612c5c565b63ffffffff161461123057604080517f08c379a000000000000000000000000000000000000000000000000000000000815260206004820152601760248201527f496e76616c6964206d6573736167652076657273696f6e000000000000000000604482015290519081900360640190fd5b600061125d7fffffffffffffffffffffffffffffffffffffffffffffffffffffffffff0000008316612c8c565b9050600061128c7fffffffffffffffffffffffffffffffffffffffffffffffffffffffffff0000008416612cbc565b9050600061129a8383612ced565b6000818152600a60205260409020549091501561131857604080517f08c379a000000000000000000000000000000000000000000000000000000000815260206004820152601260248201527f4e6f6e636520616c726561647920757365640000000000000000000000000000604482015290519081900360640190fd5b6000818152600a60205260408120600190556113557fffffffffffffffffffffffffffffffffffffffffffffffffffffffffff0000008616612d68565b905060006113ae6113877fffffffffffffffffffffffffffffffffffffffffffffffffffffffffff0000008816612d99565b7fffffffffffffffffffffffffffffffffffffffffffffffffffffffffff00000016612e08565b905073__$8c977731748aa4504deed57239565df533$__635ced058e6113f57fffffffffffffffffffffffffffffffffffffffffffffffffffffffffff0000008916612e4c565b6040518263ffffffff1660e01b81526004018082815260200191505060206040518083038186803b15801561142957600080fd5b505af415801561143d573d6000803e3d6000fd5b505050506040513d602081101561145357600080fd5b50516040517f96abeb7000000000000000000000000000000000000000000000000000000000815263ffffffff8716600482019081526024820185905260606044830190815284516064840152845173ffffffffffffffffffffffffffffffffffffffff909416936396abeb70938a938893889391929091608490910190602085019080838360005b838110156114f45781810151838201526020016114dc565b50505050905090810190601f1680156115215780820380516001836020036101000a031916815260200191505b50945050505050602060405180830381600087803b15801561154257600080fd5b505af1158015611556573d6000803e3d6000fd5b505050506040513d602081101561156c57600080fd5b50516115d957604080517f08c379a000000000000000000000000000000000000000000000000000000000815260206004820152601d60248201527f68616e646c65526563656976654d6573736167652829206661696c6564000000604482015290519081900360640190fd5b8367ffffffffffffffff163373ffffffffffffffffffffffffffffffffffffffff167f58200b4c34ae05ee816d710053fff3fb75af4395915d3d2a771b24aa10e3cc5d878585604051808463ffffffff16815260200183815260200180602001828103825283818151815260200191508051906020019080838360005b8381101561166e578181015183820152602001611656565b50505050905090810190601f16801561169b5780820380516001836020036101000a031916815260200191505b5094505050505060405180910390a35060019a9950505050505050505050565b60025474010000000000000000000000000000000000000000900460ff1681565b60006116e6612e7d565b90508073ffffffffffffffffffffffffffffffffffffffff16611707612092565b73ffffffffffffffffffffffffffffffffffffffff1614611773576040517f08c379a00000000000000000000000000000000000000000000000000000000081526004018080602001828103825260298152602001806142086029913960400191505060405180910390fd5b61177c81612e81565b50565b600061178c600583612eb2565b90505b919050565b60095467ffffffffffffffff1681565b60025473ffffffffffffffffffffffffffffffffffffffff163314611814576040517f08c379a00000000000000000000000000000000000000000000000000000000081526004018080602001828103825260228152602001806143916022913960400191505060405180910390fd5b600280547fffffffffffffffffffffff00ffffffffffffffffffffffffffffffffffffffff16740100000000000000000000000000000000000000001790556040517f6985a02210a168e66602d3235cb6db0e70f92b3ba4d376a33c0f3d9434bff62590600090a1565b7f000000000000000000000000000000000000000000000000000000000000000081565b60005473ffffffffffffffffffffffffffffffffffffffff1690565b6118c66127a4565b60088190556040805182815290517fb13bf6bebed03d1b318e3ea32e4b2a3ad9f5e2312cdf340a2f4bbfaee39f928d9181900360200190a150565b60075473ffffffffffffffffffffffffffffffffffffffff1690565b60025473ffffffffffffffffffffffffffffffffffffffff1690565b60045481565b60085481565b60035473ffffffffffffffffffffffffffffffffffffffff1633146119b5576040517f08c379a00000000000000000000000000000000000000000000000000000000081526004018080602001828103825260248152602001806143336024913960400191505060405180910390fd5b6119d673ffffffffffffffffffffffffffffffffffffffff84168383612ed4565b505050565b60025474010000000000000000000000000000000000000000900460ff1615611a6557604080517f08c379a000000000000000000000000000000000000000000000000000000000815260206004820152601060248201527f5061757361626c653a2070617573656400000000000000000000000000000000604482015290519081900360640190fd5b611a718787878761287b565b6000611ab7600089898080601f0160208091040260200160405190810160405280939291908181526020018383808284376000920191909152509293925050612a989050565b9050611ae47fffffffffffffffffffffffffffffffffffffffffffffffffffffffffff0000008216612abc565b6000611b117fffffffffffffffffffffffffffffffffffffffffffffffffffffffffff0000008316612d68565b905073__$8c977731748aa4504deed57239565df533$__635ced058e826040518263ffffffff1660e01b81526004018082815260200191505060206040518083038186803b158015611b6257600080fd5b505af4158015611b76573d6000803e3d6000fd5b505050506040513d6020811015611b8c57600080fd5b505173ffffffffffffffffffffffffffffffffffffffff163314611bfb576040517f08c379a00000000000000000000000000000000000000000000000000000000081526004018080602001828103825260218152602001806142cf6021913960400191505060405180910390fd5b6000611c287fffffffffffffffffffffffffffffffffffffffffffffffffffffffffff0000008416612c8c565b90507f000000000000000000000000000000000000000000000000000000000000000063ffffffff168163ffffffff1614611cae576040517f08c379a000000000000000000000000000000000000000000000000000000000815260040180806020018281038252602c8152602001806142a3602c913960400191505060405180910390fd5b6000611cdb7fffffffffffffffffffffffffffffffffffffffffffffffffffffffffff0000008516612bfa565b90506000611d0a7fffffffffffffffffffffffffffffffffffffffffffffffffffffffffff0000008616612e4c565b90506000611d397fffffffffffffffffffffffffffffffffffffffffffffffffffffffffff0000008716612cbc565b9050611d4a83838988858e8e61259a565b50505050505050505050505050565b60075473ffffffffffffffffffffffffffffffffffffffff163314611ddf57604080517f08c379a000000000000000000000000000000000000000000000000000000000815260206004820152601b60248201527f43616c6c6572206e6f74206174746573746572206d616e616765720000000000604482015290519081900360640190fd5b80611e4b57604080517f08c379a000000000000000000000000000000000000000000000000000000000815260206004820152601b60248201527f496e76616c6964207369676e6174757265207468726573686f6c640000000000604482015290519081900360640190fd5b611e556005612870565b811115611ec357604080517f08c379a000000000000000000000000000000000000000000000000000000000815260206004820181905260248201527f4e6577207369676e6174757265207468726573686f6c6420746f6f2068696768604482015290519081900360640190fd5b600454811415611f3457604080517f08c379a000000000000000000000000000000000000000000000000000000000815260206004820152601f60248201527f5369676e6174757265207468726573686f6c6420616c72656164792073657400604482015290519081900360640190fd5b6004805490829055604080518281526020810184905281517f149153f58b4da003a8cfd4523709a202402182cb5aa335046911277a1be6eede929181900390910190a15050565b600061178c600583612f61565b611f906127a4565b73ffffffffffffffffffffffffffffffffffffffff811661201257604080517f08c379a000000000000000000000000000000000000000000000000000000000815260206004820181905260248201527f496e76616c6964206174746573746572206d616e616765722061646472657373604482015290519081900360640190fd5b60075473ffffffffffffffffffffffffffffffffffffffff1661203482612f6d565b8173ffffffffffffffffffffffffffffffffffffffff168173ffffffffffffffffffffffffffffffffffffffff167f0cee1b7ae04f3c788dd3a46c6fa677eb95b913611ef7ab59524fdc09d346021960405160405180910390a35050565b60015473ffffffffffffffffffffffffffffffffffffffff1690565b6120b66127a4565b600180547fffffffffffffffffffffffff00000000000000000000000000000000000000001673ffffffffffffffffffffffffffffffffffffffff83169081179091556121016118a2565b73ffffffffffffffffffffffffffffffffffffffff167f38d16b8cac22d99fc7c124b9cd0de2d3fa1faef420bfe791d8c362d765e2270060405160405180910390a350565b60025460009074010000000000000000000000000000000000000000900460ff16156121d357604080517f08c379a000000000000000000000000000000000000000000000000000000000815260206004820152601060248201527f5061757361626c653a2070617573656400000000000000000000000000000000604482015290519081900360640190fd5b83612229576040517f08c379a00000000000000000000000000000000000000000000000000000000081526004018080602001828103825260228152602001806141e66022913960400191505060405180910390fd5b6000612233612558565b9050600073__$8c977731748aa4504deed57239565df533$__6382c947b7336040518263ffffffff1660e01b8152600401808273ffffffffffffffffffffffffffffffffffffffff16815260200191505060206040518083038186803b15801561229c57600080fd5b505af41580156122b0573d6000803e3d6000fd5b505050506040513d60208110156122c657600080fd5b505190506122d988888884868a8a61259a565b509695505050505050565b60075473ffffffffffffffffffffffffffffffffffffffff16331461236a57604080517f08c379a000000000000000000000000000000000000000000000000000000000815260206004820152601b60248201527f43616c6c6572206e6f74206174746573746572206d616e616765720000000000604482015290519081900360640190fd5b73ffffffffffffffffffffffffffffffffffffffff81166123ec57604080517f08c379a000000000000000000000000000000000000000000000000000000000815260206004820152601c60248201527f4e6577206174746573746572206d757374206265206e6f6e7a65726f00000000604482015290519081900360640190fd5b6123f760058261252d565b61246257604080517f08c379a000000000000000000000000000000000000000000000000000000000815260206004820152601860248201527f417474657374657220616c726561647920656e61626c65640000000000000000604482015290519081900360640190fd5b60405173ffffffffffffffffffffffffffffffffffffffff8216907f5b99bab45c72ce67e89466dbc47480b9c1fde1400e7268bbf463b8354ee4653f90600090a250565b600a6020526000908152604090205481565b6000805473ffffffffffffffffffffffffffffffffffffffff8381167fffffffffffffffffffffffff0000000000000000000000000000000000000000831681178455604051919092169283917f8be0079c531659141344cd1fd0a4f28419497f9722a3daafe3b4186f6b6457e09190a35050565b600061254f8373ffffffffffffffffffffffffffffffffffffffff8416612fb4565b90505b92915050565b600980547fffffffffffffffffffffffffffffffffffffffffffffffff00000000000000008116600167ffffffffffffffff9283169081019092161790915590565b60085481111561260b57604080517f08c379a000000000000000000000000000000000000000000000000000000000815260206004820152601d60248201527f4d65737361676520626f64792065786365656473206d61782073697a65000000604482015290519081900360640190fd5b8561267757604080517f08c379a000000000000000000000000000000000000000000000000000000000815260206004820152601960248201527f526563697069656e74206d757374206265206e6f6e7a65726f00000000000000604482015290519081900360640190fd5b60006126ff7f00000000000000000000000000000000000000000000000000000000000000007f00000000000000000000000000000000000000000000000000000000000000008a87898c8c8a8a8080601f016020809104026020016040519081016040528093929190818152602001838380828437600092019190915250612ffe92505050565b90507f8c5261668696ce22758910d05bab8f186d6eb247ceac2af2e82c7dc17669b036816040518080602001828103825283818151815260200191508051906020019080838360005b83811015612760578181015183820152602001612748565b50505050905090810190601f16801561278d5780820380516001836020036101000a031916815260200191505b509250505060405180910390a15050505050505050565b6127ac612e7d565b73ffffffffffffffffffffffffffffffffffffffff166127ca6118a2565b73ffffffffffffffffffffffffffffffffffffffff161461284c57604080517f08c379a000000000000000000000000000000000000000000000000000000000815260206004820181905260248201527f4f776e61626c653a2063616c6c6572206973206e6f7420746865206f776e6572604482015290519081900360640190fd5b565b600061254f8373ffffffffffffffffffffffffffffffffffffffff84166130f3565b600061178c826131d7565b60045460410281146128ee57604080517f08c379a000000000000000000000000000000000000000000000000000000000815260206004820152601a60248201527f496e76616c6964206174746573746174696f6e206c656e677468000000000000604482015290519081900360640190fd5b60008085856040518083838082843760405192018290039091209450600093505050505b600454811015612a8f5760006129316041838102908101908789614173565b8080601f016020809104026020016040519081016040528093929190818152602001838380828437600092018290525093945061297492508691508490506131db565b90508473ffffffffffffffffffffffffffffffffffffffff168173ffffffffffffffffffffffffffffffffffffffff1611612a1057604080517f08c379a000000000000000000000000000000000000000000000000000000000815260206004820152601f60248201527f496e76616c6964207369676e6174757265206f72646572206f72206475706500604482015290519081900360640190fd5b612a198161177f565b612a8457604080517f08c379a000000000000000000000000000000000000000000000000000000000815260206004820152601f60248201527f496e76616c6964207369676e61747572653a206e6f7420617474657374657200604482015290519081900360640190fd5b935050600101612912565b50505050505050565b815160009060208401612ab364ffffffffff851682846131e7565b95945050505050565b612ae77fffffffffffffffffffffffffffffffffffffffffffffffffffffffffff0000008216613248565b612b5257604080517f08c379a000000000000000000000000000000000000000000000000000000000815260206004820152601160248201527f4d616c666f726d6564206d657373616765000000000000000000000000000000604482015290519081900360640190fd5b6074612b7f7fffffffffffffffffffffffffffffffffffffffffffffffffffffffffff0000008316613285565b6bffffffffffffffffffffffff16101561177c57604080517f08c379a000000000000000000000000000000000000000000000000000000000815260206004820152601a60248201527f496e76616c6964206d6573736167653a20746f6f2073686f7274000000000000604482015290519081900360640190fd5b600061178c7fffffffffffffffffffffffffffffffffffffffffffffffffffffffffff000000831660086004613299565b600061178c7fffffffffffffffffffffffffffffffffffffffffffffffffffffffffff0000008316605460206132ba565b600061178c7fffffffffffffffffffffffffffffffffffffffffffffffffffffffffff0000008316826004613299565b600061178c7fffffffffffffffffffffffffffffffffffffffffffffffffffffffffff0000008316600480613299565b600061178c7fffffffffffffffffffffffffffffffffffffffffffffffffffffffffff0000008316600c6008613299565b6040805160e09390931b7fffffffff000000000000000000000000000000000000000000000000000000001660208085019190915260c09290921b7fffffffffffffffff0000000000000000000000000000000000000000000000001660248401528051808403600c018152602c9093019052815191012090565b600061178c7fffffffffffffffffffffffffffffffffffffffffffffffffffffffffff0000008316601460206132ba565b600061178c607480612dcc7fffffffffffffffffffffffffffffffffffffffffffffffffffffffffff0000008616613285565b7fffffffffffffffffffffffffffffffffffffffffffffffffffffffffff000000861692916bffffffffffffffffffffffff9103166000613465565b6060600080612e1684613285565b6bffffffffffffffffffffffff1690506040519150819250612e3b84836020016134f5565b508181016020016040529052919050565b600061178c7fffffffffffffffffffffffffffffffffffffffffffffffffffffffffff0000008316603460206132ba565b3390565b600180547fffffffffffffffffffffffff000000000000000000000000000000000000000016905561177c816124b8565b600061254f8373ffffffffffffffffffffffffffffffffffffffff8416613621565b6040805173ffffffffffffffffffffffffffffffffffffffff8416602482015260448082018490528251808303909101815260649091019091526020810180517bffffffffffffffffffffffffffffffffffffffffffffffffffffffff167fa9059cbb000000000000000000000000000000000000000000000000000000001790526119d6908490613639565b600061254f8383613711565b600780547fffffffffffffffffffffffff00000000000000000000000000000000000000001673ffffffffffffffffffffffffffffffffffffffff92909216919091179055565b6000612fc08383613621565b612ff657508154600181810184556000848152602080822090930184905584548482528286019093526040902091909155612552565b506000612552565b60608888888888888888604051602001808963ffffffff1660e01b81526004018863ffffffff1660e01b81526004018763ffffffff1660e01b81526004018667ffffffffffffffff1660c01b815260080185815260200184815260200183815260200182805190602001908083835b602083106130aa57805182527fffffffffffffffffffffffffffffffffffffffffffffffffffffffffffffffe0909201916020918201910161306d565b6001836020036101000a03801982511681845116808217855250505050505090500198505050505050505050604051602081830303815290604052905098975050505050505050565b600081815260018301602052604081205480156131cd5783547fffffffffffffffffffffffffffffffffffffffffffffffffffffffffffffffff808301919081019060009087908390811061314457fe5b906000526020600020015490508087600001848154811061316157fe5b60009182526020808320909101929092558281526001898101909252604090209084019055865487908061319157fe5b60019003818190600052602060002001600090559055866001016000878152602001908152602001600020600090556001945050505050612552565b6000915050612552565b5490565b600061254f838361378f565b6000806131f4848461381f565b9050604051811115613204575060005b80613232577fffffffffffffffffffffffffffffffffffffffffffffffffffffffffff000000915050613241565b61323d858585613891565b9150505b9392505050565b6000613253826138a4565b64ffffffffff1664ffffffffff141561326e5750600061178f565b6000613279836138aa565b60405110199392505050565b60181c6bffffffffffffffffffffffff1690565b60008160200360080260ff166132b08585856132ba565b901c949350505050565b600060ff82166132cc57506000613241565b6132d584613285565b6bffffffffffffffffffffffff166132f08460ff851661381f565b11156133cf57613331613302856138d4565b6bffffffffffffffffffffffff1661331986613285565b6bffffffffffffffffffffffff16858560ff166138e8565b6040517f08c379a00000000000000000000000000000000000000000000000000000000081526004018080602001828103825283818151815260200191508051906020019080838360005b8381101561339457818101518382015260200161337c565b50505050905090810190601f1680156133c15780820380516001836020036101000a031916815260200191505b509250505060405180910390fd5b60208260ff16111561342c576040517f08c379a000000000000000000000000000000000000000000000000000000000815260040180806020018281038252603a815260200180614357603a913960400191505060405180910390fd5b60088202600061343b866138d4565b6bffffffffffffffffffffffff169050600061345683613a43565b91909501511695945050505050565b600080613471866138d4565b6bffffffffffffffffffffffff16905061348a866138aa565b61349e85613498848961381f565b9061381f565b11156134cd577fffffffffffffffffffffffffffffffffffffffffffffffffffffffffff000000915050610929565b6134d7818661381f565b90506134eb8364ffffffffff1682866131e7565b9695505050505050565b600061350083613a8c565b613555576040517f08c379a00000000000000000000000000000000000000000000000000000000081526004018080602001828103825260288152602001806143dd6028913960400191505060405180910390fd5b61355e83613248565b6135b3576040517f08c379a000000000000000000000000000000000000000000000000000000000815260040180806020018281038252602b815260200180614405602b913960400191505060405180910390fd5b60006135be84613285565b6bffffffffffffffffffffffff16905060006135d9856138d4565b6bffffffffffffffffffffffff16905060006040519050848111156135fe5760206060fd5b8285848460045afa506134eb613613876138a4565b64ffffffffff168685613891565b60009081526001919091016020526040902054151590565b600061369b826040518060400160405280602081526020017f5361666545524332303a206c6f772d6c6576656c2063616c6c206661696c65648152508573ffffffffffffffffffffffffffffffffffffffff16613a9e9092919063ffffffff16565b8051909150156119d6578080602001905160208110156136ba57600080fd5b50516119d6576040517f08c379a000000000000000000000000000000000000000000000000000000000815260040180806020018281038252602a8152602001806143b3602a913960400191505060405180910390fd5b8154600090821061376d576040517f08c379a000000000000000000000000000000000000000000000000000000000815260040180806020018281038252602281526020018061419c6022913960400191505060405180910390fd5b82600001828154811061377c57fe5b9060005260206000200154905092915050565b6000815160411461380157604080517f08c379a000000000000000000000000000000000000000000000000000000000815260206004820152601f60248201527f45434453413a20696e76616c6964207369676e6174757265206c656e67746800604482015290519081900360640190fd5b60208201516040830151606084015160001a6134eb86828585613aad565b8181018281101561255257604080517f08c379a000000000000000000000000000000000000000000000000000000000815260206004820152601960248201527f4f766572666c6f7720647572696e67206164646974696f6e2e00000000000000604482015290519081900360640190fd5b606092831b9190911790911b1760181b90565b60d81c90565b60006138b582613285565b6138be836138d4565b016bffffffffffffffffffffffff169050919050565b60781c6bffffffffffffffffffffffff1690565b606060006138f586613c9b565b915050600061390386613c9b565b915050600061391186613c9b565b915050600061391f86613c9b565b915050838383836040516020018080614430603591397fffffffffffff000000000000000000000000000000000000000000000000000060d087811b821660358401527f2077697468206c656e6774682030780000000000000000000000000000000000603b84015286901b16604a82015260500160216142f082397fffffffffffff000000000000000000000000000000000000000000000000000060d094851b811660218301527f2077697468206c656e677468203078000000000000000000000000000000000060278301529290931b9091166036830152507f2e00000000000000000000000000000000000000000000000000000000000000603c82015260408051601d818403018152603d90920190529b9a5050505050505050505050565b7f80000000000000000000000000000000000000000000000000000000000000007fffffffffffffffffffffffffffffffffffffffffffffffffffffffffffffffff9091011d90565b6000613a9782613d6f565b1592915050565b60606109298484600085613d97565b60007f7fffffffffffffffffffffffffffffff5d576e7357a4501ddfe92f46681b20a0821115613b28576040517f08c379a000000000000000000000000000000000000000000000000000000000815260040180806020018281038252602281526020018061425b6022913960400191505060405180910390fd5b8360ff16601b1480613b3d57508360ff16601c145b613b92576040517f08c379a00000000000000000000000000000000000000000000000000000000081526004018080602001828103825260228152602001806143116022913960400191505060405180910390fd5b600060018686868660405160008152602001604052604051808581526020018460ff1681526020018381526020018281526020019450505050506020604051602081039080840390855afa158015613bee573d6000803e3d6000fd5b50506040517fffffffffffffffffffffffffffffffffffffffffffffffffffffffffffffffe0015191505073ffffffffffffffffffffffffffffffffffffffff8116612ab357604080517f08c379a000000000000000000000000000000000000000000000000000000000815260206004820152601860248201527f45434453413a20696e76616c6964207369676e61747572650000000000000000604482015290519081900360640190fd5b600080601f5b600f8160ff161115613d035760ff600882021684901c613cc081613f51565b61ffff16841793508160ff16601014613cdb57601084901b93505b507fffffffffffffffffffffffffffffffffffffffffffffffffffffffffffffffff01613ca1565b50600f5b60ff8160ff161015613d695760ff600882021684901c613d2681613f51565b61ffff16831792508160ff16600014613d4157601083901b92505b507fffffffffffffffffffffffffffffffffffffffffffffffffffffffffffffffff01613d07565b50915091565b7fffffffffffffffffffffffffffffffffffffffffffffffffffffffffff0000009081161490565b606082471015613df2576040517f08c379a000000000000000000000000000000000000000000000000000000000815260040180806020018281038252602681526020018061427d6026913960400191505060405180910390fd5b613dfb85613f81565b613e6657604080517f08c379a000000000000000000000000000000000000000000000000000000000815260206004820152601d60248201527f416464726573733a2063616c6c20746f206e6f6e2d636f6e7472616374000000604482015290519081900360640190fd5b6000808673ffffffffffffffffffffffffffffffffffffffff1685876040518082805190602001908083835b60208310613ecf57805182527fffffffffffffffffffffffffffffffffffffffffffffffffffffffffffffffe09092019160209182019101613e92565b6001836020036101000a03801982511681845116808217855250505050505090500191505060006040518083038185875af1925050503d8060008114613f31576040519150601f19603f3d011682016040523d82523d6000602084013e613f36565b606091505b5091509150613f46828286613f87565b979650505050505050565b6000613f6360048360ff16901c614007565b60ff161760081b62ffff0016613f7882614007565b60ff1617919050565b3b151590565b60608315613f96575081613241565b825115613fa65782518084602001fd5b6040517f08c379a000000000000000000000000000000000000000000000000000000000815260206004820181815284516024840152845185939192839260440191908501908083836000831561339457818101518382015260200161337c565b600060f08083179060ff8216141561402357603091505061178f565b8060ff1660f1141561403957603191505061178f565b8060ff1660f2141561404f57603291505061178f565b8060ff1660f3141561406557603391505061178f565b8060ff1660f4141561407b57603491505061178f565b8060ff1660f5141561409157603591505061178f565b8060ff1660f614156140a757603691505061178f565b8060ff1660f714156140bd57603791505061178f565b8060ff1660f814156140d357603891505061178f565b8060ff1660f914156140e957603991505061178f565b8060ff1660fa14156140ff57606191505061178f565b8060ff1660fb141561411557606291505061178f565b8060ff1660fc141561412b57606391505061178f565b8060ff1660fd141561414157606491505061178f565b8060ff1660fe141561415757606591505061178f565b8060ff1660ff141561416d57606691505061178f565b50919050565b60008085851115614182578182fd5b8386111561418e578182fd5b505082019391909203915056fe456e756d657261626c655365743a20696e646578206f7574206f6620626f756e64735061757361626c653a206e65772070617573657220697320746865207a65726f206164647265737344657374696e6174696f6e2063616c6c6572206d757374206265206e6f6e7a65726f4f776e61626c6532537465703a2063616c6c6572206973206e6f7420746865206e6577206f776e6572526573637561626c653a206e6577207265736375657220697320746865207a65726f206164647265737345434453413a20696e76616c6964207369676e6174757265202773272076616c7565416464726573733a20696e73756666696369656e742062616c616e636520666f722063616c6c4d657373616765206e6f74206f726967696e616c6c792073656e742066726f6d207468697320646f6d61696e53656e646572206e6f74207065726d697474656420746f20757365206e6f6e63652e20417474656d7074656420746f20696e646578206174206f666673657420307845434453413a20696e76616c6964207369676e6174757265202776272076616c7565526573637561626c653a2063616c6c6572206973206e6f7420746865207265736375657254797065644d656d566965772f696e646578202d20417474656d7074656420746f20696e646578206d6f7265207468616e2033322062797465735061757361626c653a2063616c6c6572206973206e6f7420746865207061757365725361666545524332303a204552433230206f7065726174696f6e20646964206e6f74207375636365656454797065644d656d566965772f636f7079546f202d204e756c6c20706f696e74657220646572656654797065644d656d566965772f636f7079546f202d20496e76616c696420706f696e74657220646572656654797065644d656d566965772f696e646578202d204f76657272616e2074686520766965772e20536c696365206973206174203078a2646970667358221220e2eab27571cb9d2ecf49a592b1b78e24c28061c662fef829a376f797fcfcd15864736f6c63430007060033",
    "linkReferences": {
      "src/messages/Message.sol": {
        "Message": [
          {
            "start": 3081,
            "length": 20
          },
          {
            "start": 5109,
            "length": 20
          },
          {
            "start": 5943,
            "length": 20
          },
          {
            "start": 7834,
            "length": 20
          },
          {
            "start": 9662,
            "length": 20
          }
        ]
      }
    }
  },
  "methodIdentifiers": {
    "acceptOwnership()": "79ba5097",
    "attesterManager()": "9b0d94b7",
    "disableAttester(address)": "2d025080",
    "enableAttester(address)": "fae36879",
    "getEnabledAttester(uint256)": "beb673d8",
    "getNumEnabledAttesters()": "51079a53",
    "isEnabledAttester(address)": "7af82f60",
    "localDomain()": "8d3638f4",
    "maxMessageBodySize()": "af47b9bb",
    "nextAvailableNonce()": "8371744e",
    "owner()": "8da5cb5b",
    "pause()": "8456cb59",
    "paused()": "5c975abb",
    "pauser()": "9fd0506d",
    "pendingOwner()": "e30c3978",
    "receiveMessage(bytes,bytes)": "57ecfd28",
    "replaceMessage(bytes,bytes,bytes,bytes32)": "b857b774",
    "rescueERC20(address,address,uint256)": "b2118a8d",
    "rescuer()": "38a63183",
    "sendMessage(uint32,bytes32,bytes)": "0ba469bc",
    "sendMessageWithCaller(uint32,bytes32,bytes32,bytes)": "f7259a75",
    "setMaxMessageBodySize(uint256)": "92492c68",
    "setSignatureThreshold(uint256)": "bbde5374",
    "signatureThreshold()": "a82f2e26",
    "transferOwnership(address)": "f2fde38b",
    "unpause()": "3f4ba83a",
    "updateAttesterManager(address)": "de7769d4",
    "updatePauser(address)": "554bab3c",
    "updateRescuer(address)": "2ab60045",
    "usedNonces(bytes32)": "feb61724",
    "version()": "54fd4d50"
  },
  "id": 15
}