{
  "abi": [
    {
      "inputs": [
        {
          "internalType": "address",
          "name": "_messageTransmitter",
          "type": "address"
        },
        {
          "internalType": "uint32",
          "name": "_messageBodyVersion",
          "type": "uint32"
        }
      ],
      "stateMutability": "nonpayable",
      "type": "constructor"
    },
    {
      "anonymous": false,
      "inputs": [
        {
          "indexed": true,
          "internalType": "uint64",
          "name": "nonce",
          "type": "uint64"
        },
        {
          "indexed": true,
          "internalType": "address",
          "name": "burnToken",
          "type": "address"
        },
        {
          "indexed": false,
          "internalType": "uint256",
          "name": "amount",
          "type": "uint256"
        },
        {
          "indexed": true,
          "internalType": "address",
          "name": "depositor",
          "type": "address"
        },
        {
          "indexed": false,
          "internalType": "bytes32",
          "name": "mintRecipient",
          "type": "bytes32"
        },
        {
          "indexed": false,
          "internalType": "uint32",
          "name": "destinationDomain",
          "type": "uint32"
        },
        {
          "indexed": false,
          "internalType": "bytes32",
          "name": "destinationTokenMessenger",
          "type": "bytes32"
        },
        {
          "indexed": false,
          "internalType": "bytes32",
          "name": "destinationCaller",
          "type": "bytes32"
        }
      ],
      "name": "DepositForBurn",
      "type": "event"
    },
    {
      "anonymous": false,
      "inputs": [
        {
          "indexed": false,
          "internalType": "address",
          "name": "localMinter",
          "type": "address"
        }
      ],
      "name": "LocalMinterAdded",
      "type": "event"
    },
    {
      "anonymous": false,
      "inputs": [
        {
          "indexed": false,
          "internalType": "address",
          "name": "localMinter",
          "type": "address"
        }
      ],
      "name": "LocalMinterRemoved",
      "type": "event"
    },
    {
      "anonymous": false,
      "inputs": [
        {
          "indexed": true,
          "internalType": "address",
          "name": "mintRecipient",
          "type": "address"
        },
        {
          "indexed": false,
          "internalType": "uint256",
          "name": "amount",
          "type": "uint256"
        },
        {
          "indexed": true,
          "internalType": "address",
          "name": "mintToken",
          "type": "address"
        }
      ],
      "name": "MintAndWithdraw",
      "type": "event"
    },
    {
      "anonymous": false,
      "inputs": [
        {
          "indexed": true,
          "internalType": "address",
          "name": "previousOwner",
          "type": "address"
        },
        {
          "indexed": true,
          "internalType": "address",
          "name": "newOwner",
          "type": "address"
        }
      ],
      "name": "OwnershipTransferStarted",
      "type": "event"
    },
    {
      "anonymous": false,
      "inputs": [
        {
          "indexed": true,
          "internalType": "address",
          "name": "previousOwner",
          "type": "address"
        },
        {
          "indexed": true,
          "internalType": "address",
          "name": "newOwner",
          "type": "address"
        }
      ],
      "name": "OwnershipTransferred",
      "type": "event"
    },
    {
      "anonymous": false,
      "inputs": [
        {
          "indexed": false,
          "internalType": "uint32",
          "name": "domain",
          "type": "uint32"
        },
        {
          "indexed": false,
          "internalType": "bytes32",
          "name": "tokenMessenger",
          "type": "bytes32"
        }
      ],
      "name": "RemoteTokenMessengerAdded",
      "type": "event"
    },
    {
      "anonymous": false,
      "inputs": [
        {
          "indexed": false,
          "internalType": "uint32",
          "name": "domain",
          "type": "uint32"
        },
        {
          "indexed": false,
          "internalType": "bytes32",
          "name": "tokenMessenger",
          "type": "bytes32"
        }
      ],
      "name": "RemoteTokenMessengerRemoved",
      "type": "event"
    },
    {
      "anonymous": false,
      "inputs": [
        {
          "indexed": true,
          "internalType": "address",
          "name": "newRescuer",
          "type": "address"
        }
      ],
      "name": "RescuerChanged",
      "type": "event"
    },
    {
      "inputs": [],
      "name": "acceptOwnership",
      "outputs": [],
      "stateMutability": "nonpayable",
      "type": "function"
    },
    {
      "inputs": [
        {
          "internalType": "address",
          "name": "newLocalMinter",
          "type": "address"
        }
      ],
      "name": "addLocalMinter",
      "outputs": [],
      "stateMutability": "nonpayable",
      "type": "function"
    },
    {
      "inputs": [
        {
          "internalType": "uint32",
          "name": "domain",
          "type": "uint32"
        },
        {
          "internalType": "bytes32",
          "name": "tokenMessenger",
          "type": "bytes32"
        }
      ],
      "name": "addRemoteTokenMessenger",
      "outputs": [],
      "stateMutability": "nonpayable",
      "type": "function"
    },
    {
      "inputs": [
        {
          "internalType": "uint256",
          "name": "amount",
          "type": "uint256"
        },
        {
          "internalType": "uint32",
          "name": "destinationDomain",
          "type": "uint32"
        },
        {
          "internalType": "bytes32",
          "name": "mintRecipient",
          "type": "bytes32"
        },
        {
          "internalType": "address",
          "name": "burnToken",
          "type": "address"
        }
      ],
      "name": "depositForBurn",
      "outputs": [
        {
          "internalType": "uint64",
          "name": "_nonce",
          "type": "uint64"
        }
      ],
      "stateMutability": "nonpayable",
      "type": "function"
    },
    {
      "inputs": [
        {
          "internalType": "uint256",
          "name": "amount",
          "type": "uint256"
        },
        {
          "internalType": "uint32",
          "name": "destinationDomain",
          "type": "uint32"
        },
        {
          "internalType": "bytes32",
          "name": "mintRecipient",
          "type": "bytes32"
        },
        {
          "internalType": "address",
          "name": "burnToken",
          "type": "address"
        },
        {
          "internalType": "bytes32",
          "name": "destinationCaller",
          "type": "bytes32"
        }
      ],
      "name": "depositForBurnWithCaller",
      "outputs": [
        {
          "internalType": "uint64",
          "name": "nonce",
          "type": "uint64"
        }
      ],
      "stateMutability": "nonpayable",
      "type": "function"
    },
    {
      "inputs": [
        {
          "internalType": "uint32",
          "name": "remoteDomain",
          "type": "uint32"
        },
        {
          "internalType": "bytes32",
          "name": "sender",
          "type": "bytes32"
        },
        {
          "internalType": "bytes",
          "name": "messageBody",
          "type": "bytes"
        }
      ],
      "name": "handleReceiveMessage",
      "outputs": [
        {
          "internalType": "bool",
          "name": "",
          "type": "bool"
        }
      ],
      "stateMutability": "nonpayable",
      "type": "function"
    },
    {
      "inputs": [],
      "name": "localMessageTransmitter",
      "outputs": [
        {
          "internalType": "contract IMessageTransmitter",
          "name": "",
          "type": "address"
        }
      ],
      "stateMutability": "view",
      "type": "function"
    },
    {
      "inputs": [],
      "name": "localMinter",
      "outputs": [
        {
          "internalType": "contract ITokenMinter",
          "name": "",
          "type": "address"
        }
      ],
      "stateMutability": "view",
      "type": "function"
    },
    {
      "inputs": [],
      "name": "messageBodyVersion",
      "outputs": [
        {
          "internalType": "uint32",
          "name": "",
          "type": "uint32"
        }
      ],
      "stateMutability": "view",
      "type": "function"
    },
    {
      "inputs": [],
      "name": "owner",
      "outputs": [
        {
          "internalType": "address",
          "name": "",
          "type": "address"
        }
      ],
      "stateMutability": "view",
      "type": "function"
    },
    {
      "inputs": [],
      "name": "pendingOwner",
      "outputs": [
        {
          "internalType": "address",
          "name": "",
          "type": "address"
        }
      ],
      "stateMutability": "view",
      "type": "function"
    },
    {
      "inputs": [
        {
          "internalType": "uint32",
          "name": "",
          "type": "uint32"
        }
      ],
      "name": "remoteTokenMessengers",
      "outputs": [
        {
          "internalType": "bytes32",
          "name": "",
          "type": "bytes32"
        }
      ],
      "stateMutability": "view",
      "type": "function"
    },
    {
      "inputs": [],
      "name": "removeLocalMinter",
      "outputs": [],
      "stateMutability": "nonpayable",
      "type": "function"
    },
    {
      "inputs": [
        {
          "internalType": "uint32",
          "name": "domain",
          "type": "uint32"
        }
      ],
      "name": "removeRemoteTokenMessenger",
      "outputs": [],
      "stateMutability": "nonpayable",
      "type": "function"
    },
    {
      "inputs": [
        {
          "internalType": "bytes",
          "name": "originalMessage",
          "type": "bytes"
        },
        {
          "internalType": "bytes",
          "name": "originalAttestation",
          "type": "bytes"
        },
        {
          "internalType": "bytes32",
          "name": "newDestinationCaller",
          "type": "bytes32"
        },
        {
          "internalType": "bytes32",
          "name": "newMintRecipient",
          "type": "bytes32"
        }
      ],
      "name": "replaceDepositForBurn",
      "outputs": [],
      "stateMutability": "nonpayable",
      "type": "function"
    },
    {
      "inputs": [
        {
          "internalType": "contract IERC20",
          "name": "tokenContract",
          "type": "address"
        },
        {
          "internalType": "address",
          "name": "to",
          "type": "address"
        },
        {
          "internalType": "uint256",
          "name": "amount",
          "type": "uint256"
        }
      ],
      "name": "rescueERC20",
      "outputs": [],
      "stateMutability": "nonpayable",
      "type": "function"
    },
    {
      "inputs": [],
      "name": "rescuer",
      "outputs": [
        {
          "internalType": "address",
          "name": "",
          "type": "address"
        }
      ],
      "stateMutability": "view",
      "type": "function"
    },
    {
      "inputs": [
        {
          "internalType": "address",
          "name": "newOwner",
          "type": "address"
        }
      ],
      "name": "transferOwnership",
      "outputs": [],
      "stateMutability": "nonpayable",
      "type": "function"
    },
    {
      "inputs": [
        {
          "internalType": "address",
          "name": "newRescuer",
          "type": "address"
        }
      ],
      "name": "updateRescuer",
      "outputs": [],
      "stateMutability": "nonpayable",
      "type": "function"
    }
  ],
  "bytecode": {
    "object": "0x60c06040523480156200001157600080fd5b506040516200366238038062003662833981810160405260408110156200003757600080fd5b508051602090910151620000546200004e620000d9565b620000dd565b6001600160a01b038216620000b0576040805162461bcd60e51b815260206004820152601a60248201527f4d6573736167655472616e736d6974746572206e6f7420736574000000000000604482015290519081900360640190fd5b60609190911b6001600160601b03191660805260e01b6001600160e01b03191660a05262000157565b3390565b600180546001600160a01b0319169055620001048162000107602090811b6200177c17901c565b50565b600080546001600160a01b038381166001600160a01b0319831681178455604051919092169283917f8be0079c531659141344cd1fd0a4f28419497f9722a3daafe3b4186f6b6457e09190a35050565b60805160601c60a05160e01c6134b9620001a960003980610819528061114e528061133f5280611fda5250806108455280610c4c52806121fc5280612252528061293f5280612a1652506134b96000f3fe608060405234801561001057600080fd5b50600436106101515760003560e01c806391f17888116100cd578063da87e44811610081578063f2fde38b11610066578063f2fde38b146104a7578063f79fd08e146104da578063f856ddb6146104fd57610151565b8063da87e44814610476578063e30c39781461049f57610151565b80639cdbb181116100b25780639cdbb1811461040a578063b2118a8d1461042b578063cb75c11c1461046e57610151565b806391f178881461036c57806396abeb701461037457610151565b80636fd3504e116101245780638197beb9116101095780638197beb9146102fc57806382a5e6651461032f5780638da5cb5b1461036457610151565b80636fd3504e1461028c57806379ba5097146102f457610151565b806329a78e33146101565780632ab60045146102205780632c1219211461025357806338a6318314610284575b600080fd5b61021e6004803603608081101561016c57600080fd5b81019060208101813564010000000081111561018757600080fd5b82018360208201111561019957600080fd5b803590602001918460018302840111640100000000831117156101bb57600080fd5b9193909290916020810190356401000000008111156101d957600080fd5b8201836020820111156101eb57600080fd5b8035906020019184600183028401116401000000008311171561020d57600080fd5b91935091508035906020013561054e565b005b61021e6004803603602081101561023657600080fd5b503573ffffffffffffffffffffffffffffffffffffffff16610b67565b61025b610c4a565b6040805173ffffffffffffffffffffffffffffffffffffffff9092168252519081900360200190f35b61025b610c6e565b6102d7600480360360808110156102a257600080fd5b50803590602081013563ffffffff16906040810135906060013573ffffffffffffffffffffffffffffffffffffffff16610c8a565b6040805167ffffffffffffffff9092168252519081900360200190f35b61021e610ca4565b61021e6004803603602081101561031257600080fd5b503573ffffffffffffffffffffffffffffffffffffffff16610d47565b6103526004803603602081101561034557600080fd5b503563ffffffff16610ecf565b60408051918252519081900360200190f35b61025b610ee1565b61021e610efd565b6103f66004803603606081101561038a57600080fd5b63ffffffff823516916020810135918101906060810160408201356401000000008111156103b757600080fd5b8201836020820111156103c957600080fd5b803590602001918460018302840111640100000000831117156103eb57600080fd5b509092509050610ffe565b604080519115158252519081900360200190f35b61041261133d565b6040805163ffffffff9092168252519081900360200190f35b61021e6004803603606081101561044157600080fd5b5073ffffffffffffffffffffffffffffffffffffffff813581169160208101359091169060400135611361565b61025b6113f7565b61021e6004803603604081101561048c57600080fd5b5063ffffffff8135169060200135611413565b61025b61155f565b61021e600480360360208110156104bd57600080fd5b503573ffffffffffffffffffffffffffffffffffffffff1661157b565b61021e600480360360208110156104f057600080fd5b503563ffffffff16611613565b6102d7600480360360a081101561051357600080fd5b5080359063ffffffff6020820135169060408101359073ffffffffffffffffffffffffffffffffffffffff60608201351690608001356116f7565b6000610594600088888080601f01602080910402602001604051908101604052809392919081815260200183838082843760009201919091525092939250506117f19050565b90506105c17fffffffffffffffffffffffffffffffffffffffffffffffffffffffffff0000008216611817565b60006105ee7fffffffffffffffffffffffffffffffffffffffffffffffffffffffffff0000008316611955565b905061061b7fffffffffffffffffffffffffffffffffffffffffffffffffffffffffff00000082166119cc565b60006106487fffffffffffffffffffffffffffffffffffffffffffffffffffffffffff0000008316611b09565b905073__$8c977731748aa4504deed57239565df533$__635ced058e826040518263ffffffff1660e01b81526004018082815260200191505060206040518083038186803b15801561069957600080fd5b505af41580156106ad573d6000803e3d6000fd5b505050506040513d60208110156106c357600080fd5b505173ffffffffffffffffffffffffffffffffffffffff16331461074857604080517f08c379a000000000000000000000000000000000000000000000000000000000815260206004820152601a60248201527f496e76616c69642073656e64657220666f72206d657373616765000000000000604482015290519081900360640190fd5b836107b457604080517f08c379a000000000000000000000000000000000000000000000000000000000815260206004820152601e60248201527f4d696e7420726563697069656e74206d757374206265206e6f6e7a65726f0000604482015290519081900360640190fd5b60006107e17fffffffffffffffffffffffffffffffffffffffffffffffffffffffffff0000008416611b3a565b905060006108107fffffffffffffffffffffffffffffffffffffffffffffffffffffffffff0000008516611b6b565b905060006108417f000000000000000000000000000000000000000000000000000000000000000084898588611b9c565b90507f000000000000000000000000000000000000000000000000000000000000000073ffffffffffffffffffffffffffffffffffffffff1663b857b7748d8d8d8d868e6040518763ffffffff1660e01b81526004018080602001806020018060200185815260200184810384528a8a82818152602001925080828437600083820152601f017fffffffffffffffffffffffffffffffffffffffffffffffffffffffffffffffe016909101858103845288815260200190508888808284376000838201819052601f9091017fffffffffffffffffffffffffffffffffffffffffffffffffffffffffffffffe0169092018681038452885181528851602091820193918a019250908190849084905b8381101561096757818101518382015260200161094f565b50505050905090810190601f1680156109945780820380516001836020036101000a031916815260200191505b509950505050505050505050600060405180830381600087803b1580156109ba57600080fd5b505af11580156109ce573d6000803e3d6000fd5b505050503373ffffffffffffffffffffffffffffffffffffffff1673__$8c977731748aa4504deed57239565df533$__635ced058e856040518263ffffffff1660e01b81526004018082815260200191505060206040518083038186803b158015610a3857600080fd5b505af4158015610a4c573d6000803e3d6000fd5b505050506040513d6020811015610a6257600080fd5b505173ffffffffffffffffffffffffffffffffffffffff16610aa57fffffffffffffffffffffffffffffffffffffffffffffffffffffffffff0000008916611bff565b67ffffffffffffffff167f2fa9ca894982930190727e75500a97d8dc500233a5065e0f3126c48fbe0343c0858b610afd7fffffffffffffffffffffffffffffffffffffffffffffffffffffffffff0000008d16611c30565b610b287fffffffffffffffffffffffffffffffffffffffffffffffffffffffffff0000008e16611c61565b60408051948552602085019390935263ffffffff909116838301526060830152608082018e9052519081900360a00190a4505050505050505050505050565b610b6f611c92565b73ffffffffffffffffffffffffffffffffffffffff8116610bdb576040517f08c379a000000000000000000000000000000000000000000000000000000000815260040180806020018281038252602a815260200180613335602a913960400191505060405180910390fd5b600280547fffffffffffffffffffffffff00000000000000000000000000000000000000001673ffffffffffffffffffffffffffffffffffffffff83169081179091556040517fe475e580d85111348e40d8ca33cfdd74c30fe1655c2d8537a13abc10065ffa5a90600090a250565b7f000000000000000000000000000000000000000000000000000000000000000081565b60025473ffffffffffffffffffffffffffffffffffffffff1690565b6000610c998585858585611d3c565b90505b949350505050565b6000610cae6121c3565b90508073ffffffffffffffffffffffffffffffffffffffff16610ccf61155f565b73ffffffffffffffffffffffffffffffffffffffff1614610d3b576040517f08c379a000000000000000000000000000000000000000000000000000000000815260040180806020018281038252602981526020018061330c6029913960400191505060405180910390fd5b610d44816121c7565b50565b610d4f611c92565b73ffffffffffffffffffffffffffffffffffffffff8116610dd157604080517f08c379a000000000000000000000000000000000000000000000000000000000815260206004820152601860248201527f5a65726f2061646472657373206e6f7420616c6c6f7765640000000000000000604482015290519081900360640190fd5b60035473ffffffffffffffffffffffffffffffffffffffff1615610e5657604080517f08c379a000000000000000000000000000000000000000000000000000000000815260206004820152601c60248201527f4c6f63616c206d696e74657220697320616c7265616479207365742e00000000604482015290519081900360640190fd5b6003805473ffffffffffffffffffffffffffffffffffffffff83167fffffffffffffffffffffffff0000000000000000000000000000000000000000909116811790915560408051918252517f109bb3e70cbf1931e295b49e75c67013b85ff80d64e6f1d321f37157b90c38309181900360200190a150565b60046020526000908152604090205481565b60005473ffffffffffffffffffffffffffffffffffffffff1690565b610f05611c92565b60035473ffffffffffffffffffffffffffffffffffffffff1680610f8a57604080517f08c379a000000000000000000000000000000000000000000000000000000000815260206004820152601760248201527f4e6f206c6f63616c206d696e746572206973207365742e000000000000000000604482015290519081900360640190fd5b600380547fffffffffffffffffffffffff00000000000000000000000000000000000000001690556040805173ffffffffffffffffffffffffffffffffffffffff8316815290517f2db49fbf671271826a27b02ebc496209c85fffffb4bccc67430d2a0f22b4d1ac9181900360200190a150565b60006110086121f8565b61107357604080517f08c379a000000000000000000000000000000000000000000000000000000000815260206004820152601b60248201527f496e76616c6964206d657373616765207472616e736d69747465720000000000604482015290519081900360640190fd5b848461107f8282612279565b6110d4576040517f08c379a000000000000000000000000000000000000000000000000000000000815260040180806020018281038252602181526020018061335f6021913960400191505060405180910390fd5b600061111a600087878080601f01602080910402602001604051908101604052809392919081815260200183838082843760009201919091525092939250506117f19050565b90506111477fffffffffffffffffffffffffffffffffffffffffffffffffffffffffff00000082166119cc565b63ffffffff7f0000000000000000000000000000000000000000000000000000000000000000166111997fffffffffffffffffffffffffffffffffffffffffffffffffffffffffff00000083166122a5565b63ffffffff161461120b57604080517f08c379a000000000000000000000000000000000000000000000000000000000815260206004820152601c60248201527f496e76616c6964206d65737361676520626f64792076657273696f6e00000000604482015290519081900360640190fd5b60006112387fffffffffffffffffffffffffffffffffffffffffffffffffffffffffff00000083166122d5565b905060006112677fffffffffffffffffffffffffffffffffffffffffffffffffffffffffff0000008416611b3a565b905060006112967fffffffffffffffffffffffffffffffffffffffffffffffffffffffffff0000008516611b6b565b905060006112a2612306565b905061132b818d8573__$8c977731748aa4504deed57239565df533$__635ced058e896040518263ffffffff1660e01b81526004018082815260200191505060206040518083038186803b1580156112f957600080fd5b505af415801561130d573d6000803e3d6000fd5b505050506040513d602081101561132357600080fd5b5051866123aa565b5060019b9a5050505050505050505050565b7f000000000000000000000000000000000000000000000000000000000000000081565b60025473ffffffffffffffffffffffffffffffffffffffff1633146113d1576040517f08c379a00000000000000000000000000000000000000000000000000000000081526004018080602001828103825260248152602001806133c76024913960400191505060405180910390fd5b6113f273ffffffffffffffffffffffffffffffffffffffff841683836124c3565b505050565b60035473ffffffffffffffffffffffffffffffffffffffff1681565b61141b611c92565b8061148757604080517f08c379a000000000000000000000000000000000000000000000000000000000815260206004820152601660248201527f62797465733332283029206e6f7420616c6c6f77656400000000000000000000604482015290519081900360640190fd5b63ffffffff82166000908152600460205260409020541561150957604080517f08c379a000000000000000000000000000000000000000000000000000000000815260206004820152601a60248201527f546f6b656e4d657373656e67657220616c726561647920736574000000000000604482015290519081900360640190fd5b63ffffffff82166000818152600460209081526040918290208490558151928352820183905280517f4bba2b08298cf59661b4895e384cc2ac3962ce2d71f1b7c11bca52e1169f95999281900390910190a15050565b60015473ffffffffffffffffffffffffffffffffffffffff1690565b611583611c92565b600180547fffffffffffffffffffffffff00000000000000000000000000000000000000001673ffffffffffffffffffffffffffffffffffffffff83169081179091556115ce610ee1565b73ffffffffffffffffffffffffffffffffffffffff167f38d16b8cac22d99fc7c124b9cd0de2d3fa1faef420bfe791d8c362d765e2270060405160405180910390a350565b61161b611c92565b63ffffffff811660009081526004602052604090205461169c57604080517f08c379a000000000000000000000000000000000000000000000000000000000815260206004820152601560248201527f4e6f20546f6b656e4d657373656e676572207365740000000000000000000000604482015290519081900360640190fd5b63ffffffff8116600081815260046020908152604080832080549390558051938452908301829052805191927f3dcea012093dbca2bb8ed7fd2b2ff90305ab70bddda8bbb94d4152735a98f0b1929081900390910190a15050565b60008161176557604080517f08c379a000000000000000000000000000000000000000000000000000000000815260206004820152601a60248201527f496e76616c69642064657374696e6174696f6e2063616c6c6572000000000000604482015290519081900360640190fd5b6117728686868686611d3c565b9695505050505050565b6000805473ffffffffffffffffffffffffffffffffffffffff8381167fffffffffffffffffffffffff0000000000000000000000000000000000000000831681178455604051919092169283917f8be0079c531659141344cd1fd0a4f28419497f9722a3daafe3b4186f6b6457e09190a35050565b81516000906020840161180c64ffffffffff85168284612550565b925050505b92915050565b6118427fffffffffffffffffffffffffffffffffffffffffffffffffffffffffff00000082166125af565b6118ad57604080517f08c379a000000000000000000000000000000000000000000000000000000000815260206004820152601160248201527f4d616c666f726d6564206d657373616765000000000000000000000000000000604482015290519081900360640190fd5b60746118da7fffffffffffffffffffffffffffffffffffffffffffffffffffffffffff00000083166125ec565b6bffffffffffffffffffffffff161015610d4457604080517f08c379a000000000000000000000000000000000000000000000000000000000815260206004820152601a60248201527f496e76616c6964206d6573736167653a20746f6f2073686f7274000000000000604482015290519081900360640190fd5b60006119c46074806119887fffffffffffffffffffffffffffffffffffffffffffffffffffffffffff00000086166125ec565b7fffffffffffffffffffffffffffffffffffffffffffffffffffffffffff000000861692916bffffffffffffffffffffffff9103166000612600565b90505b919050565b6119f77fffffffffffffffffffffffffffffffffffffffffffffffffffffffffff00000082166125af565b611a6257604080517f08c379a000000000000000000000000000000000000000000000000000000000815260206004820152601160248201527f4d616c666f726d6564206d657373616765000000000000000000000000000000604482015290519081900360640190fd5b6084611a8f7fffffffffffffffffffffffffffffffffffffffffffffffffffffffffff00000083166125ec565b6bffffffffffffffffffffffff1614610d4457604080517f08c379a000000000000000000000000000000000000000000000000000000000815260206004820152601660248201527f496e76616c6964206d657373616765206c656e67746800000000000000000000604482015290519081900360640190fd5b60006119c47fffffffffffffffffffffffffffffffffffffffffffffffffffffffffff000000831660646020612686565b60006119c47fffffffffffffffffffffffffffffffffffffffffffffffffffffffffff000000831660046020612686565b60006119c47fffffffffffffffffffffffffffffffffffffffffffffffffffffffffff000000831660446020612831565b6040805160e09690961b7fffffffff000000000000000000000000000000000000000000000000000000001660208701526024860194909452604485019290925260648401526084808401919091528151808403909101815260a4909201905290565b60006119c47fffffffffffffffffffffffffffffffffffffffffffffffffffffffffff0000008316600c6008612831565b60006119c47fffffffffffffffffffffffffffffffffffffffffffffffffffffffffff000000831660086004612831565b60006119c47fffffffffffffffffffffffffffffffffffffffffffffffffffffffffff000000831660346020612686565b611c9a6121c3565b73ffffffffffffffffffffffffffffffffffffffff16611cb8610ee1565b73ffffffffffffffffffffffffffffffffffffffff1614611d3a57604080517f08c379a000000000000000000000000000000000000000000000000000000000815260206004820181905260248201527f4f776e61626c653a2063616c6c6572206973206e6f7420746865206f776e6572604482015290519081900360640190fd5b565b6000808611611dac57604080517f08c379a000000000000000000000000000000000000000000000000000000000815260206004820152601660248201527f416d6f756e74206d757374206265206e6f6e7a65726f00000000000000000000604482015290519081900360640190fd5b83611e1857604080517f08c379a000000000000000000000000000000000000000000000000000000000815260206004820152601e60248201527f4d696e7420726563697069656e74206d757374206265206e6f6e7a65726f0000604482015290519081900360640190fd5b6000611e2386612852565b90506000611e2f612306565b604080517f23b872dd00000000000000000000000000000000000000000000000000000000815233600482015273ffffffffffffffffffffffffffffffffffffffff8084166024830152604482018c905291519293508792918316916323b872dd916064808201926020929091908290030181600087803b158015611eb357600080fd5b505af1158015611ec7573d6000803e3d6000fd5b505050506040513d6020811015611edd57600080fd5b5051611f4a57604080517f08c379a000000000000000000000000000000000000000000000000000000000815260206004820152601960248201527f5472616e73666572206f7065726174696f6e206661696c656400000000000000604482015290519081900360640190fd5b8173ffffffffffffffffffffffffffffffffffffffff16639dc29fac878b6040518363ffffffff1660e01b8152600401808373ffffffffffffffffffffffffffffffffffffffff16815260200182815260200192505050600060405180830381600087803b158015611fbb57600080fd5b505af1158015611fcf573d6000803e3d6000fd5b5050505060006121297f000000000000000000000000000000000000000000000000000000000000000073__$8c977731748aa4504deed57239565df533$__6382c947b78a6040518263ffffffff1660e01b8152600401808273ffffffffffffffffffffffffffffffffffffffff16815260200191505060206040518083038186803b15801561205e57600080fd5b505af4158015612072573d6000803e3d6000fd5b505050506040513d602081101561208857600080fd5b5051604080517f82c947b700000000000000000000000000000000000000000000000000000000815233600482015290518c918f9173__$8c977731748aa4504deed57239565df533$__916382c947b7916024808301926020929190829003018186803b1580156120f857600080fd5b505af415801561210c573d6000803e3d6000fd5b505050506040513d602081101561212257600080fd5b5051611b9c565b905060006121398a8689856128d4565b604080518d8152602081018c905263ffffffff8d168183015260608101889052608081018a90529051919250339173ffffffffffffffffffffffffffffffffffffffff8b169167ffffffffffffffff8516917f2fa9ca894982930190727e75500a97d8dc500233a5065e0f3126c48fbe0343c09181900360a00190a49a9950505050505050505050565b3390565b600180547fffffffffffffffffffffffff0000000000000000000000000000000000000000169055610d448161177c565b60007f000000000000000000000000000000000000000000000000000000000000000073ffffffffffffffffffffffffffffffffffffffff161580159061227457503373ffffffffffffffffffffffffffffffffffffffff7f000000000000000000000000000000000000000000000000000000000000000016145b905090565b6000811580159061229e575063ffffffff831660009081526004602052604090205482145b9392505050565b60006119c47fffffffffffffffffffffffffffffffffffffffffffffffffffffffffff0000008316826004612831565b60006119c47fffffffffffffffffffffffffffffffffffffffffffffffffffffffffff000000831660246020612686565b60035460009073ffffffffffffffffffffffffffffffffffffffff1661238d57604080517f08c379a000000000000000000000000000000000000000000000000000000000815260206004820152601760248201527f4c6f63616c206d696e746572206973206e6f7420736574000000000000000000604482015290519081900360640190fd5b5060035473ffffffffffffffffffffffffffffffffffffffff1690565b604080517fd54de06f00000000000000000000000000000000000000000000000000000000815263ffffffff861660048201526024810185905273ffffffffffffffffffffffffffffffffffffffff848116604483015260648201849052915187926000929084169163d54de06f9160848082019260209290919082900301818787803b15801561243a57600080fd5b505af115801561244e573d6000803e3d6000fd5b505050506040513d602081101561246457600080fd5b505160408051858152905191925073ffffffffffffffffffffffffffffffffffffffff80841692908716917f1b2a7ff080b8cb6ff436ce0372e399692bbfb6d4ae5766fd8d58a7b8cc6142e6919081900360200190a350505050505050565b6040805173ffffffffffffffffffffffffffffffffffffffff8416602482015260448082018490528251808303909101815260649091019091526020810180517bffffffffffffffffffffffffffffffffffffffffffffffffffffffff167fa9059cbb000000000000000000000000000000000000000000000000000000001790526113f2908490612b07565b60008061255d8484612bdf565b905060405181111561256d575060005b8061259b577fffffffffffffffffffffffffffffffffffffffffffffffffffffffffff00000091505061229e565b6125a6858585612c51565b95945050505050565b60006125ba82612c64565b64ffffffffff1664ffffffffff14156125d5575060006119c7565b60006125e083612c6a565b60405110199392505050565b60181c6bffffffffffffffffffffffff1690565b60008061260c86612c94565b6bffffffffffffffffffffffff16905061262586612c6a565b612639856126338489612bdf565b90612bdf565b1115612668577fffffffffffffffffffffffffffffffffffffffffffffffffffffffffff000000915050610c9c565b6126728186612bdf565b90506117728364ffffffffff168286612550565b600060ff82166126985750600061229e565b6126a1846125ec565b6bffffffffffffffffffffffff166126bc8460ff8516612bdf565b111561279b576126fd6126ce85612c94565b6bffffffffffffffffffffffff166126e5866125ec565b6bffffffffffffffffffffffff16858560ff16612ca8565b6040517f08c379a00000000000000000000000000000000000000000000000000000000081526004018080602001828103825283818151815260200191508051906020019080838360005b83811015612760578181015183820152602001612748565b50505050905090810190601f16801561278d5780820380516001836020036101000a031916815260200191505b509250505060405180910390fd5b60208260ff1611156127f8576040517f08c379a000000000000000000000000000000000000000000000000000000000815260040180806020018281038252603a8152602001806133eb603a913960400191505060405180910390fd5b60088202600061280786612c94565b6bffffffffffffffffffffffff169050600061282283612e03565b91909501511695945050505050565b60008160200360080260ff16612848858585612686565b901c949350505050565b63ffffffff8116600090815260046020526040812054806119c457604080517f08c379a000000000000000000000000000000000000000000000000000000000815260206004820152601c60248201527f4e6f20546f6b656e4d657373656e67657220666f7220646f6d61696e00000000604482015290519081900360640190fd5b600082612a14576040517f0ba469bc00000000000000000000000000000000000000000000000000000000815263ffffffff8616600482019081526024820186905260606044830190815284516064840152845173ffffffffffffffffffffffffffffffffffffffff7f00000000000000000000000000000000000000000000000000000000000000001693630ba469bc938a938a93899360840190602085019080838360005b8381101561299357818101518382015260200161297b565b50505050905090810190601f1680156129c05780820380516001836020036101000a031916815260200191505b50945050505050602060405180830381600087803b1580156129e157600080fd5b505af11580156129f5573d6000803e3d6000fd5b505050506040513d6020811015612a0b57600080fd5b50519050610c9c565b7f000000000000000000000000000000000000000000000000000000000000000073ffffffffffffffffffffffffffffffffffffffff1663f7259a75868686866040518563ffffffff1660e01b8152600401808563ffffffff16815260200184815260200183815260200180602001828103825283818151815260200191508051906020019080838360005b83811015612ab8578181015183820152602001612aa0565b50505050905090810190601f168015612ae55780820380516001836020036101000a031916815260200191505b5095505050505050602060405180830381600087803b1580156129e157600080fd5b6000612b69826040518060400160405280602081526020017f5361666545524332303a206c6f772d6c6576656c2063616c6c206661696c65648152508573ffffffffffffffffffffffffffffffffffffffff16612e4c9092919063ffffffff16565b8051909150156113f257808060200190516020811015612b8857600080fd5b50516113f2576040517f08c379a000000000000000000000000000000000000000000000000000000000815260040180806020018281038252602a815260200180613425602a913960400191505060405180910390fd5b8181018281101561181157604080517f08c379a000000000000000000000000000000000000000000000000000000000815260206004820152601960248201527f4f766572666c6f7720647572696e67206164646974696f6e2e00000000000000604482015290519081900360640190fd5b606092831b9190911790911b1760181b90565b60d81c90565b6000612c75826125ec565b612c7e83612c94565b016bffffffffffffffffffffffff169050919050565b60781c6bffffffffffffffffffffffff1690565b60606000612cb586612e5b565b9150506000612cc386612e5b565b9150506000612cd186612e5b565b9150506000612cdf86612e5b565b91505083838383604051602001808061344f603591397fffffffffffff000000000000000000000000000000000000000000000000000060d087811b821660358401527f2077697468206c656e6774682030780000000000000000000000000000000000603b84015286901b16604a82015260500160216133a682397fffffffffffff000000000000000000000000000000000000000000000000000060d094851b811660218301527f2077697468206c656e677468203078000000000000000000000000000000000060278301529290931b9091166036830152507f2e00000000000000000000000000000000000000000000000000000000000000603c82015260408051601d818403018152603d90920190529b9a5050505050505050505050565b7f80000000000000000000000000000000000000000000000000000000000000007fffffffffffffffffffffffffffffffffffffffffffffffffffffffffffffffff9091011d90565b6060610c9c8484600085612f2f565b600080601f5b600f8160ff161115612ec35760ff600882021684901c612e80816130e9565b61ffff16841793508160ff16601014612e9b57601084901b93505b507fffffffffffffffffffffffffffffffffffffffffffffffffffffffffffffffff01612e61565b50600f5b60ff8160ff161015612f295760ff600882021684901c612ee6816130e9565b61ffff16831792508160ff16600014612f0157601083901b92505b507fffffffffffffffffffffffffffffffffffffffffffffffffffffffffffffffff01612ec7565b50915091565b606082471015612f8a576040517f08c379a00000000000000000000000000000000000000000000000000000000081526004018080602001828103825260268152602001806133806026913960400191505060405180910390fd5b612f9385613119565b612ffe57604080517f08c379a000000000000000000000000000000000000000000000000000000000815260206004820152601d60248201527f416464726573733a2063616c6c20746f206e6f6e2d636f6e7472616374000000604482015290519081900360640190fd5b6000808673ffffffffffffffffffffffffffffffffffffffff1685876040518082805190602001908083835b6020831061306757805182527fffffffffffffffffffffffffffffffffffffffffffffffffffffffffffffffe0909201916020918201910161302a565b6001836020036101000a03801982511681845116808217855250505050505090500191505060006040518083038185875af1925050503d80600081146130c9576040519150601f19603f3d011682016040523d82523d6000602084013e6130ce565b606091505b50915091506130de82828661311f565b979650505050505050565b60006130fb60048360ff16901c61319f565b60ff161760081b62ffff00166131108261319f565b60ff1617919050565b3b151590565b6060831561312e57508161229e565b82511561313e5782518084602001fd5b6040517f08c379a0000000000000000000000000000000000000000000000000000000008152602060048201818152845160248401528451859391928392604401919085019080838360008315612760578181015183820152602001612748565b600060f08083179060ff821614156131bb5760309150506119c7565b8060ff1660f114156131d15760319150506119c7565b8060ff1660f214156131e75760329150506119c7565b8060ff1660f314156131fd5760339150506119c7565b8060ff1660f414156132135760349150506119c7565b8060ff1660f514156132295760359150506119c7565b8060ff1660f6141561323f5760369150506119c7565b8060ff1660f714156132555760379150506119c7565b8060ff1660f8141561326b5760389150506119c7565b8060ff1660f914156132815760399150506119c7565b8060ff1660fa14156132975760619150506119c7565b8060ff1660fb14156132ad5760629150506119c7565b8060ff1660fc14156132c35760639150506119c7565b8060ff1660fd14156132d95760649150506119c7565b8060ff1660fe14156132ef5760659150506119c7565b8060ff1660ff14156133055760669150506119c7565b5091905056fe4f776e61626c6532537465703a2063616c6c6572206973206e6f7420746865206e6577206f776e6572526573637561626c653a206e6577207265736375657220697320746865207a65726f206164647265737352656d6f746520546f6b656e4d657373656e67657220756e737570706f72746564416464726573733a20696e73756666696369656e742062616c616e636520666f722063616c6c2e20417474656d7074656420746f20696e646578206174206f6666736574203078526573637561626c653a2063616c6c6572206973206e6f7420746865207265736375657254797065644d656d566965772f696e646578202d20417474656d7074656420746f20696e646578206d6f7265207468616e2033322062797465735361666545524332303a204552433230206f7065726174696f6e20646964206e6f74207375636365656454797065644d656d566965772f696e646578202d204f76657272616e2074686520766965772e20536c696365206973206174203078a26469706673582212206b689f34f4e15f499706461beeb293d1cec2381023fbd21a46dcbc1856ad238864736f6c63430007060033",
    "linkReferences": {
      "src/messages/Message.sol": {
        "Message": [
          {
            "start": 2037,
            "length": 20
          },
          {
            "start": 2964,
            "length": 20
          },
          {
            "start": 5205,
            "length": 20
          },
          {
            "start": 8612,
            "length": 20
          },
          {
            "start": 8808,
            "length": 20
          }
        ]
      }
    }
  },
  "methodIdentifiers": {
    "acceptOwnership()": "79ba5097",
    "addLocalMinter(address)": "8197beb9",
    "addRemoteTokenMessenger(uint32,bytes32)": "da87e448",
    "depositForBurn(uint256,uint32,bytes32,address)": "6fd3504e",
    "depositForBurnWithCaller(uint256,uint32,bytes32,address,bytes32)": "f856ddb6",
    "handleReceiveMessage(uint32,bytes32,bytes)": "96abeb70",
    "localMessageTransmitter()": "2c121921",
    "localMinter()": "cb75c11c",
    "messageBodyVersion()": "9cdbb181",
    "owner()": "8da5cb5b",
    "pendingOwner()": "e30c3978",
    "remoteTokenMessengers(uint32)": "82a5e665",
    "removeLocalMinter()": "91f17888",
    "removeRemoteTokenMessenger(uint32)": "f79fd08e",
    "replaceDepositForBurn(bytes,bytes,bytes32,bytes32)": "29a78e33",
    "rescueERC20(address,address,uint256)": "b2118a8d",
    "rescuer()": "38a63183",
    "transferOwnership(address)": "f2fde38b",
    "updateRescuer(address)": "2ab60045"
  },
  "id": 16
}